{
  "contracts/Transactions.sol": {
    "Transactions": {
      "abi": [
        {
          "anonymous": false,
          "inputs": [
            {
              "indexed": false,
              "internalType": "address",
              "name": "sender",
              "type": "address"
            },
            {
              "indexed": false,
              "internalType": "address",
              "name": "receiver",
              "type": "address"
            },
            {
              "indexed": false,
              "internalType": "uint256",
              "name": "amount",
              "type": "uint256"
            },
            {
              "indexed": false,
              "internalType": "string",
              "name": "message",
              "type": "string"
            },
            {
              "indexed": false,
              "internalType": "uint256",
              "name": "timestamp",
              "type": "uint256"
            },
            {
              "indexed": false,
              "internalType": "string",
              "name": "keyword",
              "type": "string"
            }
          ],
          "name": "Transfer",
          "type": "event"
        },
        {
          "inputs": [
            {
              "internalType": "address payable",
              "name": "receiver",
              "type": "address"
            },
            {
              "internalType": "uint256",
              "name": "amount",
              "type": "uint256"
            },
            {
              "internalType": "string",
              "name": "message",
              "type": "string"
            },
            {
              "internalType": "string",
              "name": "keyword",
              "type": "string"
            }
          ],
          "name": "publishTransaction",
          "outputs": [],
          "stateMutability": "nonpayable",
          "type": "function"
        }
      ],
      "evm": {
        "bytecode": {
          "linkReferences": {},
          "object": "6080604052348015600f57600080fd5b506104d38061001f6000396000f3fe608060405234801561001057600080fd5b506004361061002b5760003560e01c80637d0ee35714610030575b600080fd5b61004a60048036038101906100459190610281565b61004c565b005b7f416cfa4330a4565f45c2fd2dd4826a83a37443aba2ce6f79477c7355afac35fa3385858542866040516100859695949392919061042e565b60405180910390a150505050565b6000604051905090565b600080fd5b600080fd5b600073ffffffffffffffffffffffffffffffffffffffff82169050919050565b60006100d2826100a7565b9050919050565b6100e2816100c7565b81146100ed57600080fd5b50565b6000813590506100ff816100d9565b92915050565b6000819050919050565b61011881610105565b811461012357600080fd5b50565b6000813590506101358161010f565b92915050565b600080fd5b600080fd5b6000601f19601f8301169050919050565b7f4e487b7100000000000000000000000000000000000000000000000000000000600052604160045260246000fd5b61018e82610145565b810181811067ffffffffffffffff821117156101ad576101ac610156565b5b80604052505050565b60006101c0610093565b90506101cc8282610185565b919050565b600067ffffffffffffffff8211156101ec576101eb610156565b5b6101f582610145565b9050602081019050919050565b82818337600083830152505050565b600061022461021f846101d1565b6101b6565b9050828152602081018484840111156102405761023f610140565b5b61024b848285610202565b509392505050565b600082601f8301126102685761026761013b565b5b8135610278848260208601610211565b91505092915050565b6000806000806080858703121561029b5761029a61009d565b5b60006102a9878288016100f0565b94505060206102ba87828801610126565b935050604085013567ffffffffffffffff8111156102db576102da6100a2565b5b6102e787828801610253565b925050606085013567ffffffffffffffff811115610308576103076100a2565b5b61031487828801610253565b91505092959194509250565b600061032b826100a7565b9050919050565b61033b81610320565b82525050565b6000819050919050565b600061036661036161035c846100a7565b610341565b6100a7565b9050919050565b60006103788261034b565b9050919050565b600061038a8261036d565b9050919050565b61039a8161037f565b82525050565b6103a981610105565b82525050565b600081519050919050565b600082825260208201905092915050565b60005b838110156103e95780820151818401526020810190506103ce565b60008484015250505050565b6000610400826103af565b61040a81856103ba565b935061041a8185602086016103cb565b61042381610145565b840191505092915050565b600060c0820190506104436000830189610332565b6104506020830188610391565b61045d60408301876103a0565b818103606083015261046f81866103f5565b905061047e60808301856103a0565b81810360a083015261049081846103f5565b905097965050505050505056fea264697066735822122050e8c784be5cf16e8ce520afe118113a0e0487e2211e0408cacc4e66fc7f7b3064736f6c634300081c0033",
          "opcodes": "PUSH1 0x80 PUSH1 0x40 MSTORE CALLVALUE DUP1 ISZERO PUSH1 0xF JUMPI PUSH1 0x0 DUP1 REVERT JUMPDEST POP PUSH2 0x4D3 DUP1 PUSH2 0x1F PUSH1 0x0 CODECOPY PUSH1 0x0 RETURN INVALID PUSH1 0x80 PUSH1 0x40 MSTORE CALLVALUE DUP1 ISZERO PUSH2 0x10 JUMPI PUSH1 0x0 DUP1 REVERT JUMPDEST POP PUSH1 0x4 CALLDATASIZE LT PUSH2 0x2B JUMPI PUSH1 0x0 CALLDATALOAD PUSH1 0xE0 SHR DUP1 PUSH4 0x7D0EE357 EQ PUSH2 0x30 JUMPI JUMPDEST PUSH1 0x0 DUP1 REVERT JUMPDEST PUSH2 0x4A PUSH1 0x4 DUP1 CALLDATASIZE SUB DUP2 ADD SWAP1 PUSH2 0x45 SWAP2 SWAP1 PUSH2 0x281 JUMP JUMPDEST PUSH2 0x4C JUMP JUMPDEST STOP JUMPDEST PUSH32 0x416CFA4330A4565F45C2FD2DD4826A83A37443ABA2CE6F79477C7355AFAC35FA CALLER DUP6 DUP6 DUP6 TIMESTAMP DUP7 PUSH1 0x40 MLOAD PUSH2 0x85 SWAP7 SWAP6 SWAP5 SWAP4 SWAP3 SWAP2 SWAP1 PUSH2 0x42E JUMP JUMPDEST PUSH1 0x40 MLOAD DUP1 SWAP2 SUB SWAP1 LOG1 POP POP POP POP JUMP JUMPDEST PUSH1 0x0 PUSH1 0x40 MLOAD SWAP1 POP SWAP1 JUMP JUMPDEST PUSH1 0x0 DUP1 REVERT JUMPDEST PUSH1 0x0 DUP1 REVERT JUMPDEST PUSH1 0x0 PUSH20 0xFFFFFFFFFFFFFFFFFFFFFFFFFFFFFFFFFFFFFFFF DUP3 AND SWAP1 POP SWAP2 SWAP1 POP JUMP JUMPDEST PUSH1 0x0 PUSH2 0xD2 DUP3 PUSH2 0xA7 JUMP JUMPDEST SWAP1 POP SWAP2 SWAP1 POP JUMP JUMPDEST PUSH2 0xE2 DUP2 PUSH2 0xC7 JUMP JUMPDEST DUP2 EQ PUSH2 0xED JUMPI PUSH1 0x0 DUP1 REVERT JUMPDEST POP JUMP JUMPDEST PUSH1 0x0 DUP2 CALLDATALOAD SWAP1 POP PUSH2 0xFF DUP2 PUSH2 0xD9 JUMP JUMPDEST SWAP3 SWAP2 POP POP JUMP JUMPDEST PUSH1 0x0 DUP2 SWAP1 POP SWAP2 SWAP1 POP JUMP JUMPDEST PUSH2 0x118 DUP2 PUSH2 0x105 JUMP JUMPDEST DUP2 EQ PUSH2 0x123 JUMPI PUSH1 0x0 DUP1 REVERT JUMPDEST POP JUMP JUMPDEST PUSH1 0x0 DUP2 CALLDATALOAD SWAP1 POP PUSH2 0x135 DUP2 PUSH2 0x10F JUMP JUMPDEST SWAP3 SWAP2 POP POP JUMP JUMPDEST PUSH1 0x0 DUP1 REVERT JUMPDEST PUSH1 0x0 DUP1 REVERT JUMPDEST PUSH1 0x0 PUSH1 0x1F NOT PUSH1 0x1F DUP4 ADD AND SWAP1 POP SWAP2 SWAP1 POP JUMP JUMPDEST PUSH32 0x4E487B7100000000000000000000000000000000000000000000000000000000 PUSH1 0x0 MSTORE PUSH1 0x41 PUSH1 0x4 MSTORE PUSH1 0x24 PUSH1 0x0 REVERT JUMPDEST PUSH2 0x18E DUP3 PUSH2 0x145 JUMP JUMPDEST DUP2 ADD DUP2 DUP2 LT PUSH8 0xFFFFFFFFFFFFFFFF DUP3 GT OR ISZERO PUSH2 0x1AD JUMPI PUSH2 0x1AC PUSH2 0x156 JUMP JUMPDEST JUMPDEST DUP1 PUSH1 0x40 MSTORE POP POP POP JUMP JUMPDEST PUSH1 0x0 PUSH2 0x1C0 PUSH2 0x93 JUMP JUMPDEST SWAP1 POP PUSH2 0x1CC DUP3 DUP3 PUSH2 0x185 JUMP JUMPDEST SWAP2 SWAP1 POP JUMP JUMPDEST PUSH1 0x0 PUSH8 0xFFFFFFFFFFFFFFFF DUP3 GT ISZERO PUSH2 0x1EC JUMPI PUSH2 0x1EB PUSH2 0x156 JUMP JUMPDEST JUMPDEST PUSH2 0x1F5 DUP3 PUSH2 0x145 JUMP JUMPDEST SWAP1 POP PUSH1 0x20 DUP2 ADD SWAP1 POP SWAP2 SWAP1 POP JUMP JUMPDEST DUP3 DUP2 DUP4 CALLDATACOPY PUSH1 0x0 DUP4 DUP4 ADD MSTORE POP POP POP JUMP JUMPDEST PUSH1 0x0 PUSH2 0x224 PUSH2 0x21F DUP5 PUSH2 0x1D1 JUMP JUMPDEST PUSH2 0x1B6 JUMP JUMPDEST SWAP1 POP DUP3 DUP2 MSTORE PUSH1 0x20 DUP2 ADD DUP5 DUP5 DUP5 ADD GT ISZERO PUSH2 0x240 JUMPI PUSH2 0x23F PUSH2 0x140 JUMP JUMPDEST JUMPDEST PUSH2 0x24B DUP5 DUP3 DUP6 PUSH2 0x202 JUMP JUMPDEST POP SWAP4 SWAP3 POP POP POP JUMP JUMPDEST PUSH1 0x0 DUP3 PUSH1 0x1F DUP4 ADD SLT PUSH2 0x268 JUMPI PUSH2 0x267 PUSH2 0x13B JUMP JUMPDEST JUMPDEST DUP2 CALLDATALOAD PUSH2 0x278 DUP5 DUP3 PUSH1 0x20 DUP7 ADD PUSH2 0x211 JUMP JUMPDEST SWAP2 POP POP SWAP3 SWAP2 POP POP JUMP JUMPDEST PUSH1 0x0 DUP1 PUSH1 0x0 DUP1 PUSH1 0x80 DUP6 DUP8 SUB SLT ISZERO PUSH2 0x29B JUMPI PUSH2 0x29A PUSH2 0x9D JUMP JUMPDEST JUMPDEST PUSH1 0x0 PUSH2 0x2A9 DUP8 DUP3 DUP9 ADD PUSH2 0xF0 JUMP JUMPDEST SWAP5 POP POP PUSH1 0x20 PUSH2 0x2BA DUP8 DUP3 DUP9 ADD PUSH2 0x126 JUMP JUMPDEST SWAP4 POP POP PUSH1 0x40 DUP6 ADD CALLDATALOAD PUSH8 0xFFFFFFFFFFFFFFFF DUP2 GT ISZERO PUSH2 0x2DB JUMPI PUSH2 0x2DA PUSH2 0xA2 JUMP JUMPDEST JUMPDEST PUSH2 0x2E7 DUP8 DUP3 DUP9 ADD PUSH2 0x253 JUMP JUMPDEST SWAP3 POP POP PUSH1 0x60 DUP6 ADD CALLDATALOAD PUSH8 0xFFFFFFFFFFFFFFFF DUP2 GT ISZERO PUSH2 0x308 JUMPI PUSH2 0x307 PUSH2 0xA2 JUMP JUMPDEST JUMPDEST PUSH2 0x314 DUP8 DUP3 DUP9 ADD PUSH2 0x253 JUMP JUMPDEST SWAP2 POP POP SWAP3 SWAP6 SWAP2 SWAP5 POP SWAP3 POP JUMP JUMPDEST PUSH1 0x0 PUSH2 0x32B DUP3 PUSH2 0xA7 JUMP JUMPDEST SWAP1 POP SWAP2 SWAP1 POP JUMP JUMPDEST PUSH2 0x33B DUP2 PUSH2 0x320 JUMP JUMPDEST DUP3 MSTORE POP POP JUMP JUMPDEST PUSH1 0x0 DUP2 SWAP1 POP SWAP2 SWAP1 POP JUMP JUMPDEST PUSH1 0x0 PUSH2 0x366 PUSH2 0x361 PUSH2 0x35C DUP5 PUSH2 0xA7 JUMP JUMPDEST PUSH2 0x341 JUMP JUMPDEST PUSH2 0xA7 JUMP JUMPDEST SWAP1 POP SWAP2 SWAP1 POP JUMP JUMPDEST PUSH1 0x0 PUSH2 0x378 DUP3 PUSH2 0x34B JUMP JUMPDEST SWAP1 POP SWAP2 SWAP1 POP JUMP JUMPDEST PUSH1 0x0 PUSH2 0x38A DUP3 PUSH2 0x36D JUMP JUMPDEST SWAP1 POP SWAP2 SWAP1 POP JUMP JUMPDEST PUSH2 0x39A DUP2 PUSH2 0x37F JUMP JUMPDEST DUP3 MSTORE POP POP JUMP JUMPDEST PUSH2 0x3A9 DUP2 PUSH2 0x105 JUMP JUMPDEST DUP3 MSTORE POP POP JUMP JUMPDEST PUSH1 0x0 DUP2 MLOAD SWAP1 POP SWAP2 SWAP1 POP JUMP JUMPDEST PUSH1 0x0 DUP3 DUP3 MSTORE PUSH1 0x20 DUP3 ADD SWAP1 POP SWAP3 SWAP2 POP POP JUMP JUMPDEST PUSH1 0x0 JUMPDEST DUP4 DUP2 LT ISZERO PUSH2 0x3E9 JUMPI DUP1 DUP3 ADD MLOAD DUP2 DUP5 ADD MSTORE PUSH1 0x20 DUP2 ADD SWAP1 POP PUSH2 0x3CE JUMP JUMPDEST PUSH1 0x0 DUP5 DUP5 ADD MSTORE POP POP POP POP JUMP JUMPDEST PUSH1 0x0 PUSH2 0x400 DUP3 PUSH2 0x3AF JUMP JUMPDEST PUSH2 0x40A DUP2 DUP6 PUSH2 0x3BA JUMP JUMPDEST SWAP4 POP PUSH2 0x41A DUP2 DUP6 PUSH1 0x20 DUP7 ADD PUSH2 0x3CB JUMP JUMPDEST PUSH2 0x423 DUP2 PUSH2 0x145 JUMP JUMPDEST DUP5 ADD SWAP2 POP POP SWAP3 SWAP2 POP POP JUMP JUMPDEST PUSH1 0x0 PUSH1 0xC0 DUP3 ADD SWAP1 POP PUSH2 0x443 PUSH1 0x0 DUP4 ADD DUP10 PUSH2 0x332 JUMP JUMPDEST PUSH2 0x450 PUSH1 0x20 DUP4 ADD DUP9 PUSH2 0x391 JUMP JUMPDEST PUSH2 0x45D PUSH1 0x40 DUP4 ADD DUP8 PUSH2 0x3A0 JUMP JUMPDEST DUP2 DUP2 SUB PUSH1 0x60 DUP4 ADD MSTORE PUSH2 0x46F DUP2 DUP7 PUSH2 0x3F5 JUMP JUMPDEST SWAP1 POP PUSH2 0x47E PUSH1 0x80 DUP4 ADD DUP6 PUSH2 0x3A0 JUMP JUMPDEST DUP2 DUP2 SUB PUSH1 0xA0 DUP4 ADD MSTORE PUSH2 0x490 DUP2 DUP5 PUSH2 0x3F5 JUMP JUMPDEST SWAP1 POP SWAP8 SWAP7 POP POP POP POP POP POP POP JUMP INVALID LOG2 PUSH5 0x6970667358 0x22 SLT KECCAK256 POP 0xE8 0xC7 DUP5 0xBE TLOAD CALL PUSH15 0x8CE520AFE118113A0E0487E2211E04 ADDMOD 0xCA 0xCC 0x4E PUSH7 0xFC7F7B3064736F PUSH13 0x634300081C0033000000000000 "
        },
        "methodIdentifiers": {
          "publishTransaction(address,uint256,string,string)": "7d0ee357"
        }
      }
    }
  }
}